S00C00006D61696E2E7372656373
S1130000F07F0010D90A00004D0B00004D0B0000DA
S11300104D0B00004D0B00004D0B000000000000D4
S1130020000000000000000000000000CD2D0000D2
S11300304D0B000000000000D92E0000152F000019
S11300404D0B00004D0B00004D0B00004D0B00004C
S11300504D0B00004D0B00004D0B00004D0B00003C
S11300604D0B00004D0B00004D0B00004D0B00002C
S11300704D0B00004D0B00004D0B00004D0B00001C
S11300804D0B00004D0B00004D0B00004D0B00000C
S11300904D0B00004D0B00004D0B00004D0B0000FC
S11300A04D0B00004D0B00004D0B00004D0B0000EC
S11300B04D0B00004D0B00004D0B00004D0B0000DC
S11300C04D0B00004D0B00004D0B000010B540F22D
S11300D01804C1F20004237863B940F20000C0F2AE
S11300E0000028B143F28820C0F20000AFF3008082
S11300F00121217010BD00BF08B540F20003C0F219
S113010000034BB143F2882040F21C01C0F200000E
S1130110C1F20001AFF3008040F21400C1F200000C
S1130120016829B140F20003C0F2000303B198470B
S113013008BD00BF80B400AF4CF22003C2F2090333
S11301404FF480121A604CF22003C2F209035B6977
S113015003F48013002B0CD04CF22003C2F20903E9
S11301604CF22002C2F20902526922F480125A614E
S1130170E9E74CF22003C2F209034CF22002C2F276
S11301800902526942F480125A61DCE780B584B0F6
S113019004AF00F01FF840F23512C0F2000243F23F
S11301A05423C0F200034FF0000100914FF000010E
S11301B001914FF0000102914FF0000103911046AC
S11301C019464FF050024FF0000301F0D9FC02F041
S11301D03DF8FEE780B584B000AF41F6F173C1F697
S11301E0FF73FB604CF20003C4F20F034FF00002F4
S11301F0C3F8C4204CF20003C4F20F034FF40042CE
S1130200C3F8C4204CF20003C4F202034FF000020E
S11302109A624CF20003C4F20F03D3F8883003F05F
S11302200073002B17D04CF20003C4F20F034FF0FD
S11302300102C3F880204CF20003C4F20F034FF014
S1130240AA02C3F88C204CF20003C4F20F034FF04F
S11302505502C3F88C204CF20003C4F20F034FF094
S11302600002C3F880204CF20003C4F20F034FF0E5
S1130270AA02C3F88C204CF20003C4F20F034FF01F
S11302805502C3F88C204CF20003C4F20F034CF265
S11302900002C4F20F02D2F8A02142F02002C3F8F7
S11302A0A0214CF20003C4F20F03D3F8A03103F0F1
S11302B04003002BF5D04CF20003C4F20F034FF0BF
S11302C00102C3F80C214CF20003C4F20F0340F204
S11302D03102C0F20202C3F884204CF20003C4F2DB
S11302E00F034FF0AA02C3F88C204CF20003C4F2AF
S11302F00F034FF05502C3F88C204CF20003C4F2F4
S11303000F034FF00102C3F880204CF20003C4F243
S11303100F034FF0AA02C3F88C204CF20003C4F27E
S11303200F034FF05502C3F88C204CF20003C4F2C3
S11303300F034FF00302C3F804214CF20003C4F28C
S11303400F0344F23A021A604CF20003C4F20F03A2
S1130350D3F8883003F08063002BF5D04CF200030F
S1130360C4F20F034FF00302C3F880204CF20003E1
S1130370C4F20F034FF0AA02C3F88C204CF200031E
S1130380C4F20F034FF05502C3F88C204CF2000363
S1130390C4F20F03D3F8883003F00073002BF5D0B8
S11303A04CF20003C4F20F03D3F8A83003F4007333
S11303B0002B17D04CF20003C4F20F034FF00102DC
S11303C0C3F8A0204CF20003C4F20F034FF0AA02BA
S11303D0C3F8AC204CF20003C4F20F034FF05502F3
S11303E0C3F8AC204CF20003C4F20F034FF0000238
S11303F0C3F8A0204CF20003C4F20F034FF0AA028A
S1130400C3F8AC204CF20003C4F20F034FF05502C2
S1130410C3F8AC204CF20003C4F20F034FF02302E4
S1130420C3F8A4204CF20003C4F20F034FF0AA0255
S1130430C3F8AC204CF20003C4F20F034FF0550292
S1130440C3F8AC204CF20003C4F20F034FF00102D6
S1130450C3F8A0204CF20003C4F20F034FF0AA0229
S1130460C3F8AC204CF20003C4F20F034FF0550262
S1130470C3F8AC204CF20003C4F20F03D3F8A83045
S113048003F48063002BF5D04CF20003C4F20F0395
S11304904FF00302C3F8A0204CF20003C4F20F0390
S11304A04FF0AA02C3F8AC204CF20003C4F20F03CD
S11304B04FF05502C3F8AC204CF20003C4F20F0312
S11304C0D3F8A83003F40073002BF5D04CF20003EA
S11304D0C4F20F0345F25552C0F25552C3F8A82195
S11304E044F63853C1F200034FF000021A704FF083
S11304F036037B6007F1040107F10402FB68084638
S113050011469847BB684FEA1363252B06D144F67E
S11305103853C1F200034FF001021A7007F11007BB
S1130520BD4680BD80B483B000AF78603960FEE71B
S113053080B400AFBD4680BC704700BF80B400AF3C
S1130540FEE700BF80B483B000AF786039607B6899
S1130550002B0AD07B681B683A68D2B21A707B6899
S11305601B6803F101027B681A6007F10C07BD46A2
S113057080BC70472DE9F04184B000AFF860B960E9
S11305807A603B604FF000044FF020067B68002B3C
S11305901EDD4FF00005D7F8088003E005F10105E2
S11305A008F1010898F80030002BF7D17B689D42D0
S11305B003DB4FF000037B6003E07B68C5EB0303C0
S11305C07B603B6803F00203002B01D04FF0300640
S11305D03B6803F00103002B1BD109E0F8683146A6
S11305E0FFF7B0FF04F101047B6803F1FF337B6084
S11305F07B68002BF2DC0DE0BB681B78F8681946B9
S1130600FFF7A0FF04F10104BB6803F10103BB6021
S113061000E000BFBB681B78002BEDD109E0F8684F
S11306203146FFF78FFF04F101047B6803F1FF33C8
S11306307B607B68002BF2DC2346184607F1100729
S1130640BD46BDE8F08100BF2DE9F04589B000AF9B
S1130650F860B9607A603B604FF0000A4FF0000820
S1130660BD68BB68002B0FD14FF030033B754FF0D2
S113067000037B7507F11403F86819463A6C7B6C28
S1130680FFF778FF034654E03B68002B0BD07B68F0
S11306900A2B08D1BB68002B05DA4FF0010ABB68AE
S11306A0C3F100031D4607F1140303F10B044FF0DB
S11306B00003237017E07B68B5FBF3F203FB02F33E
S11306C0C3EB05031E46092E03DDBB6CA3F13A03FD
S11306D01E4404F1FF34F3B203F13003DBB22370A0
S11306E07B68B5FBF3F5002DE5D1BAF1000F18D006
S11306F03B6C002B10D07B6C03F00203002B0BD05F
S1130700F8684FF02D01FFF71DFF08F101083B6C5D
S113071003F1FF333B6404E004F1FF344FF02D0395
S11307202370F86821463A6C7B6CFFF723FF03467D
S11307304344184607F12407BD46BDE8F08500BFD1
S11307402DE9F0418AB004AFF860B9607A604FF0E7
S11307500004EDE0BB681B78252B40F0DB80BB6810
S113076003F10103BB604FF000063546BB681B78FC
S1130770002B00F0E380BB681B78252B00F0C980B8
S1130780BB681B782D2B0DD1BB6803F10103BB6043
S11307904FF0010607E0BB6803F10103BB6046F0BC
S11307A0020600E000BFBB681B78302BF3D00FE0DB
S11307B02B464FEA83032B444FEA43031D46BB6891
S11307C01B78A3F130031D44BB6803F10103BB6034
S11307D0BB681B782F2B03D9BB681B78392BE7D94F
S11307E0BB681B78732B17D17B6803F104027A6012
S11307F01B689846B8F1000F01D0434603E043F26A
S11308005823C0F20003F86819462A463346FFF716
S1130810B1FE03461C4487E0BB681B78642B14D1EB
S11308207B6803F104027A601B68009501964FF01F
S113083061020292F86819464FF00A024FF0010370
S1130840FFF702FF03461C446EE0BB681B78782B5D
S113085014D17B6803F104027A601B680095019649
S11308604FF061020292F86819464FF010024FF0FF
S11308700003FFF7E9FE03461C4455E0BB681B7800
S1130880582B14D17B6803F104027A601B6800952D
S113089001964FF041020292F86819464FF0100297
S11308A04FF00003FFF7D0FE03461C443CE0BB6856
S11308B01B78752B14D17B6803F104027A601B68E2
S11308C0009501964FF061020292F86819464FF0C4
S11308D00A024FF00003FFF7B7FE03461C4423E06F
S11308E0BB681B78632B1ED17B6803F104027A601A
S11308F01B68DBB23B754FF000037B7507F11403F3
S1130900F86819462A463346FFF734FE03461C446A
S11309100AE000BFBB681B78F8681946FFF712FEAF
S113092004F1010400E000BFBB6803F10103BB60F4
S1130930BB681B78002B7FF40DAF00E000BFFB68A1
S1130940002B04D0FB681B684FF000021A7023468A
S1130950184607F11807BD46BDE8F0810FB480B50D
S113096082B000AF07F114037B604FF000003969D7
S11309707A68FFF7E5FE0346184607F10807BD4607
S1130980BDE8804004B070470EB480B585B000AFB8
S1130990786007F12003FB6007F104031846F96946
S11309A0FA68FFF7CDFE0346184607F11407BD4663
S11309B0BDE8804003B070470CB480B584B000AF8C
S11309C07860396007F11C03FB6007F104031846E3
S11309D0B969FA68FFF7B4FE0346184607F1100731
S11309E0BD46BDE8804002B0704700BF80B485B00A
S11309F000AFF860B9607A604FF00003184607F161
S1130A001407BD4680BC704780B485B000AFF86061
S1130A10B9607A603B604FF0FF33184607F1140762
S1130A20BD4680BC704700BF80B485B000AFF8609D
S1130A30B9607A603B604FF00003184607F1140771
S1130A40BD4680BC704700BF80B485B000AFF8607D
S1130A50B9607A603B604FF00003184607F1140751
S1130A60BD4680BC704700BF80B483B000AF7860DF
S1130A7039604FF00003184607F10C07BD4680BCEF
S1130A80704700BF80B483B000AF786039604FF026
S1130A900003184607F10C07BD4680BC704700BF31
S1130AA080B485B000AFF860B9607A604FF000039D
S1130AB0184607F11407BD4680BC704780B483B064
S1130AC000AF786039604FF00003184607F10C0757
S1130AD0BD4680BC704700BF80B582B000AF43F212
S1130AE08C23C0F200033B6040F20003C1F2000318
S1130AF07B600BE03B681A687B681A607B6803F1D3
S1130B0004037B603B6803F104033B607A6840F2B2
S1130B100C03C1F200039A42ECD340F21803C1F271
S1130B2000033B6007E03B684FF000021A603B683B
S1130B3003F104033B603A6844F68C53C1F20003AA
S1130B409A42F0D3FFF722FBFEE700BF80B400AF68
S1130B50FEE700BF80B400AF4CF20003C4F20F0301
S1130B60D3F888304FEA136303F00303032B40F0F8
S1130B70AC804CF20003C4F20F03D3F80C3103F041
S1130B800303032B00F2F68001A252F823F000BF06
S1130B90A10B0000050C00006B0C0000A10B000071
S1130BA04CF20003C4F20F03D3F888304FEA4343F6
S1130BB04FEA534303F1010241F20023C0F27A03E6
S1130BC003FB02F24CF20003C4F20F03D3F88830A3
S1130BD04FEA134303F0FF0303F10103B2FBF3F203
S1130BE04CF20003C4F20F03D3F8043103F0FF0303
S1130BF003F10103B2FBF3F240F20403C1F2000378
S1130C001A60B8E04CF20003C4F20F03D3F8883042
S1130C104FEA43434FEA534303F1010243F20063B3
S1130C20C0F26E1303FB02F24CF20003C4F20F0392
S1130C30D3F888304FEA134303F0FF0303F10103B1
S1130C40B2FBF3F24CF20003C4F20F03D3F8043105
S1130C5003F0FF0303F10103B2FBF3F240F20403D8
S1130C60C1F200031A6000BF85E04CF20003C4F235
S1130C700F03D3F888304FEA43434FEA534303F159
S1130C8001034FF47A4202FB03F24CF20003C4F274
S1130C900F03D3F888304FEA134303F0FF0303F143
S1130CA00103B2FBF3F24CF20003C4F20F03D3F8D6
S1130CB0043103F0FF0303F10103B2FBF3F240F24A
S1130CC00403C1F200031A6055E04CF20003C4F2BD
S1130CD00F03D3F80C3103F00303032B4BD801A209
S1130CE052F823F0F50C0000210D00004D0D00001A
S1130CF0F50C00004CF20003C4F20F03D3F80431E6
S1130D0003F0FF0303F1010240F60013C0F23D03B8
S1130D10B3FBF2F240F20403C1F200031A602AE0CA
S1130D204CF20003C4F20F03D3F8043103F0FF03C1
S1130D3003F1010241F60033C0F2B703B3FBF2F250
S1130D4040F20403C1F200031A6014E04CF2000301
S1130D50C4F20F03D3F8043103F0FF0303F10103DA
S1130D604FF4FA42B2FBF3F240F20403C1F200037F
S1130D701A6000E000BFBD4680BC704780B400AF7D
S1130D804CF20003C4F20F034FF02002C3F8A02179
S1130D904CF20003C4F20F03D3F8A03103F0400374
S1130DA0002BF5D04CF20003C4F20F034FF0030202
S1130DB0C3F804214CF20003C4F20F034FF0010204
S1130DC0C3F80C214CF20003C4F20F0340F2630297
S1130DD0C0F20502C3F884204CF20003C4F20F03EE
S1130DE04FF0AA02C3F88C204CF20003C4F20F03A4
S1130DF04FF05502C3F88C204CF20003C4F20F03E9
S1130E004FF00102C3F880204CF20003C4F20F0338
S1130E104FF0AA02C3F88C204CF20003C4F20F0373
S1130E204FF05502C3F88C204CF20003C4F20F03B8
S1130E30D3F8883003F08063002BF5D04CF2000324
S1130E40C4F20F034FF00302C3F880204CF20003F6
S1130E50C4F20F034FF0AA02C3F88C204CF2000333
S1130E60C4F20F034FF05502C3F88C204CF2000378
S1130E70C4F20F03D3F8883003F04073002BF5D08D
S1130E804CF20003C4F20F034FF02302C3F8A42072
S1130E904CF20003C4F20F034FF0AA02C3F8AC20D3
S1130EA04CF20003C4F20F034FF05502C3F8AC2018
S1130EB04CF20003C4F20F034FF00102C3F8A02068
S1130EC04CF20003C4F20F034FF0AA02C3F8AC20A3
S1130ED04CF20003C4F20F034FF05502C3F8AC20E8
S1130EE04CF20003C4F20F03D3F8A83003F4806378
S1130EF0002BF5D04CF20003C4F20F034FF00302B1
S1130F00C3F8A0204CF20003C4F20F034FF0AA026E
S1130F10C3F8AC204CF20003C4F20F034FF05502A7
S1130F20C3F8AC204CF20003C4F20F03D3F8A8308A
S1130F3003F44073002BF5D04CF20003C4F20F030A
S1130F404FF00002C3F8A8214CF20003C4F20F03CF
S1130F504FF00002C3F8AC214CF20003C4F20F03BB
S1130F6048F2DE72C0F22842C3F8C4204CF20003F7
S1130F70C4F20F034FF00002C3F8C8214CF200037F
S1130F80C4F20F0343F23A021A60BD4680BC7047B4
S1130F904FF00004EFF309842046704723461846B7
S1130FA0034683F3098870474FF00004EFF3088485
S1130FB02046704723461846034683F30888704743
S1130FC080B483B000AF4FF000037B60EFF3128373
S1130FD07B607B68184607F10C07BD4680BC7047F0
S1130FE080B483B000AF78607B6883F3118807F125
S1130FF00C07BD4680BC704780B483B000AF4FF08F
S113100000037B60EFF310837B607B68184607F175
S11310100C07BD4680BC704780B483B000AF7860D5
S11310207B6883F3108807F10C07BD4680BC7047CA
S113103080B483B000AF4FF000037B60EFF3138301
S11310407B607B68184607F10C07BD4680BC70477F
S113105080B483B000AF78607B6883F3138807F1B2
S11310600C07BD4680BC704780B483B000AF4FF01E
S113107000037B60EFF314837B607B68184607F101
S11310800C07BD4680BC704780B483B000AF786065
S11310907B6883F3148807F10C07BD4680BC704756
S11310A080B485B000AF78604FF00003FB607B68CC
S11310B01BBAFB60FB68184607F11407BD4680BCE9
S11310C0704700BF80B485B000AF0346FB804FF08B
S11310D00003FB60FB885BBAFB60FB68184607F102
S11310E01407BD4680BC704780B485B000AF03468A
S11310F0FB804FF00003FB60FB88DBBAFB60FB68FE
S1131100184607F11407BD4680BC704780B485B00B
S113111000AF78604FF00003FB607B6893FAA3F3A1
S1131120FB60FB68184607F11407BD4680BC704796
S113113080B485B000AF78604FF00003FB737B6828
S1131140D3E84F3FFB73FB7B184607F11407BD46FA
S113115080BC704780B485B000AF78604FF0000366
S1131160FB817B68D3E85F3FFB81FB89184607F16D
S11311701407BD4680BC704780B485B000AF78606A
S11311804FF00003FB607B6853E8003FFB60FB68A3
S1131190184607F11407BD4680BC704780B485B07B
S11311A000AF03463960FB714FF00003FB603B68FE
S11311B0FA79C3E8432FFB60FB68184607F114076C
S11311C0BD4680BC704700BF80B485B000AF034605
S11311D03960FB804FF00003FB603B68FA88C3E88A
S11311E0532FFB60FB68184607F11407BD4680BC0B
S11311F0704700BF80B485B000AF786039604FF0AD
S11312000003FB603B687A6843E80023FB60FB68EB
S1131210184607F11407BD4680BC704780B483B0FC
S113122000AF78607B6803F108031A467B685A6054
S11312307B684FF0FF329A607B6803F108031A461B
S11312407B68DA607B6803F108031A467B681A61DD
S11312507B684FF000021A6007F10C07BD4680BCA2
S1131260704700BF80B483B000AF78607B684FF0F4
S113127000021A6107F10C07BD4680BC704700BF2D
S113128080B485B000AF786039607B685B68FB60D0
S1131290FB685A683B685A607B685A683B689A6086
S11312A0FB685B683A689A603A68FB685A603A6817
S11312B07B685A603B687A681A617B681B6803F133
S11312C001027B681A6007F11407BD4680BC7047B1
S11312D080B485B000AF786039603B681B68FB6000
S11312E0FB68B3F1FF3F03D17B681B69BB600DE072
S11312F07B6803F10803BB6002E0BB685B68BB600A
S1131300BB685B681A68FB689A42F6D9BB685A687E
S11313103B685A603B685B683A689A603B68BA68A5
S11313209A603A68BB685A603B687A681A617B685D
S11313301B6803F101027B681A6007F11407BD46BC
S113134080BC704780B485B000AF78607B685B6810
S11313507A6892689A607B689B687A6852685A6077
S11313607B681B69FB60FB685A687B689A4203D1FF
S11313707B689A68FB685A607B684FF000021A61C8
S1131380FB681B6803F1FF32FB681A6007F114075E
S1131390BD4680BC704700BF80B584B000AF7860A4
S11313A039607B68002B55D04FF04C0001F0A6FB50
S11313B00346BB60BB68002B4CD07B683A6802FBD9
S11313C003F303F10103FB60F86801F097FB0346A4
S11313D01A46BB681A60BB681B68002B37D0BB6811
S11313E01A687B68396801FB03F31A44BB685A60C6
S11313F0BB684FF000029A63BB681A68BB689A60C6
S1131400BB681A687B6803F1FF33396801FB03F397
S11314101A44BB68DA60BB687A68DA63BB683A6806
S11314201A64BB684FF0FF325A64BB684FF0FF3256
S11314309A64BB6803F110031846FFF7EFFEBB681C
S113144003F124031846FFF7E9FEBB6804E0B8681B
S113145001F036FC4FF00003184607F11007BD46B3
S113146080BD00BF80B588B000AFF860B9607A6015
S11314703B604FF00003FB6100E000BF01F0FAFCA9
S1131480FB689A6BFB68DB6B9A4218D2F868B96800
S11314903A6800F0F7F9FB685B6A002B0AD0FB6836
S11314A003F12403184601F07BF90346012B01D113
S11314B001F0D4FC01F0F4FC4FF001035DE07B6823
S11314C0002B04D101F0ECFC4FF0000355E0FB6964
S11314D0002B07D107F11403184601F0CBF94FF0A4
S11314E00103FB6101F0DCFC00F000FF01F0C2FC31
S11314F0FB685B6CB3F1FF3F03D1FB684FF0000264
S11315005A64FB689B6CB3F1FF3F03D1FB684FF057
S113151000029A6401F0C4FC07F1140207F1040309
S11315201046194601F0BEF90346002B1ED1F86897
S113153000F09EFA0346002B12D0FB6803F1100260
S11315407B681046194601F0C1F8F86800F018FAF3
S113155000F0DEFE0346002B8FD101F07FFC8DE707
S1131560F86800F00DFA00F0D3FE87E7F86800F0A1
S113157007FA00F0CDFE4FF00003184607F12007EC
S1131580BD4680BD80B586B000AFF860B9607A60B2
S11315903B604FF000037B614FF0280080F311881B
S11315A0FB689A6BFB68DB6B9A4229D2F868B968CE
S11315B03A6800F067F9FB689B6CB3F1FF3F11D107
S11315C0FB685B6A002B14D0FB6803F12403184604
S11315D001F0E6F80346002B0DD07B684FF00102C2
S11315E01A6009E0FB689B6C03F10102FB689A64D2
S11315F002E000BF00E000BF4FF001033B6102E0E6
S11316004FF000033B614FF0000080F311883B6909
S1131610184607F11807BD4680BD00BF80B588B0E5
S113162000AFF860B9607A603B604FF00003BB61C3
S113163000E000BF01F01EFCFB689B6B002B3AD05E
S1131640FB68DB68FB61F868B96800F071F93B6816
S1131650002B15D1FB689B6B03F1FF32FB689A6387
S1131660FB681B69002B1ED0FB6803F110031846AE
S113167001F096F80346012B17D101F0EFFB15E0BA
S1131680FB68FA69DA60FB685B6A002B0ED0FB68C2
S113169003F12403184601F083F80346002B05D018
S11316A001F0DCFB02E000BF00E000BF01F0F8FB4A
S11316B04FF001035EE07B68002B04D101F0F0FBE6
S11316C04FF0000356E0BB69002B07D107F110036C
S11316D0184601F0CFF84FF00103BB6101F0E0FBC5
S11316E000F004FE01F0C6FBFB685B6CB3F1FF3F46
S11316F003D1FB684FF000025A64FB689B6CB3F1A2
S1131700FF3F03D1FB684FF000029A6401F0C8FB6D
S113171007F1100207F104031046194601F0C2F85C
S11317200346002B1FD1F86800F07AF90346002B1A
S113173013D0FB6803F124027B681046194600F0BD
S1131740C5FFF86800F01CF900F0E2FD0346002B29
S11317507FF46FAF01F082FB6CE7F86800F010F9DA
S113176000F0D6FD66E7F86800F00AF900F0D0FD55
S11317704FF00003184607F12007BD4680BD00BFA7
S113178080B586B000AFF860B9607A604FF00003AE
S11317907B614FF0280080F31188FB689B6B002B62
S11317A02ED0F868B96800F0C3F8FB689B6B03F1AE
S11317B0FF32FB689A63FB685B6CB3F1FF3F11D1A6
S11317C0FB681B69002B14D0FB6803F11003184657
S11317D000F0E6FF0346002B0DD07B684FF00102BA
S11317E01A6009E0FB685B6C03F10102FB685A6450
S11317F002E000BF00E000BF4FF001033B6102E0E4
S11318004FF000033B614FF0000080F311883B6907
S1131810184607F11807BD4680BD00BF80B584B0E7
S113182000AF786001F026FB7B689B6BFB6001F0E6
S113183037FBFB68184607F11007BD4680BD00BFA3
S113184080B485B000AF78607B689B6BFB60FB68FD
S1131850184607F11407BD4680BC704780B582B0B6
S113186000AF7860786800F061F97B681B681846FF
S113187001F026FA786801F023FA07F10807BD465B
S113188080BD00BF80B584B000AFF860B9607A60F5
S1131890FB681B6C002B40D07B68002B1AD1FB68C3
S11318A09A68FB681B6C1046B9681A4601F064FB21
S11318B0FB689A68FB681B6C1A44FB689A60FB68B7
S11318C09A68FB685B689A4226D3FB681A68FB68CF
S11318D09A6022E0FB68DA68FB681B6C1046B96802
S11318E01A4601F049FBFB68DA68FB681B6CC3F11C
S11318F000031A44FB68DA60FB68DA68FB681B685B
S11319009A420AD2FB685A68FB681B6CC3F1000355
S11319101A44FB68DA6000E000BFFB689B6B03F1CC
S11319200102FB689A6307F11007BD4680BD00BF42
S113193080B582B000AF786039607B681B68002B8B
S113194019D07B68DA687B681B6C1A447B68DA60A0
S11319507B68DA687B685B689A4203D37B681A68A1
S11319607B68DA607B68DA687B681B6C38681146D0
S11319701A4601F001FB07F10807BD4680BD00BF10
S113198080B582B000AF786001F074FA14E07B682F
S11319905B6A002B15D07B6803F12403184600F022
S11319A0FFFE0346002B01D000F0D0FF7B689B6C48
S11319B003F1FF327B689A647B689B6C002BE6DC46
S11319C000E000BF7B684FF0FF329A6401F068FAD0
S11319D001F050FA14E07B681B69002B15D07B687A
S11319E003F11003184600F0DBFE0346002B01D080
S11319F000F0ACFF7B685B6C03F1FF327B685A64D8
S1131A007B685B6C002BE6DC00E000BF7B684FF07A
S1131A10FF325A6401F044FA07F10807BD4680BD5D
S1131A2080B584B000AF786001F024FA7B689B6BCA
S1131A30002B14BF00230123FB6001F031FAFB6883
S1131A40184607F11007BD4680BD00BF80B485B0BD
S1131A5000AF78607B689B6B002B14BF00230123CD
S1131A60FB60FB68184607F11407BD4680BC70474D
S1131A7080B584B000AF786001F0FCF97B689A6BA4
S1131A807B68DB6B9A4214BF00230123FB6001F0E7
S1131A9007FAFB68184607F11007BD4680BD00BF72
S1131AA080B485B000AF78607B689A6B7B68DB6B31
S1131AB09A4214BF00230123FB60FB68184607F118
S1131AC01407BD4680BC704780B485B000AF786011
S1131AD039604FF00003FB601FE0FA6844F63C53A2
S1131AE0C1F2000353F83230002B12D1FA6844F6E5
S1131AF03C53C1F20003396843F83210FB6844F6E2
S1131B003C52C1F200024FEAC30313447A685A609C
S1131B1006E0FB6803F10103FB60FB68092BDCD9D9
S1131B2007F11407BD4680BC704700BF80B485B080
S1131B3000AF78604FF00003FB6019E0FB6844F6E7
S1131B403C52C1F200024FEAC30313445A687B6853
S1131B509A4209D1FA6844F63C53C1F200034FF0AB
S1131B60000143F8321006E0FB6803F10103FB6057
S1131B70FB68092BE2D907F11407BD4680BC704706
S1131B8080B58AB002AFF860B9603B601346FB8051
S1131B90FB881846396B00F07BFF0346BB61BB69C9
S1131BA0002B00F09980BB691A6BFB8803F1FF33AB
S1131BB04FEA83031344FB61FB6923F00703FB61D2
S1131BC0FB880093B869B968BA6A7B6B00F0D2FEEF
S1131BD0F869F9683A6801F0C9F803461A46BB691E
S1131BE01A6001F047F940F2F403C1F200031B68E4
S1131BF003F1010240F2F403C1F200031A6040F25F
S1131C00F403C1F200031B68012B08D140F2340332
S1131C10C1F20003BA691A6000F0E8FE15E040F270
S1131C200413C1F200031B68002B0ED140F23403ED
S1131C30C1F200031B68DA6ABB6A9A4205D840F213
S1131C403403C1F20003BA691A60BB69DA6A40F26C
S1131C50FC03C1F200031B689A4206D9BB69DA6A25
S1131C6040F2FC03C1F200031A6040F21813C1F2FF
S1131C7000031B6803F1010240F21813C1F20003D0
S1131C801A60BB69DA6A40F20013C1F200031B68F0
S1131C909A4206D9BB69DA6A40F20013C1F2000322
S1131CA01A60BB69DA6A13464FEA830313444FEAA6
S1131CB083031A4640F23803C1F200031A44BB6995
S1131CC003F1040310461946FFF7DAFA4FF0010353
S1131CD07B6101F0E5F802E04FF0FF337B617B6943
S1131CE0012B17D1FB6A002B02D0FB6ABA691A6078
S1131CF040F20413C1F200031B68002B0AD040F227
S1131D003403C1F200031B68DA6ABB6A9A4201D247
S1131D1001F0A4F87B69184607F12007BD4680BD91
S1131D2080B586B000AF786039604FF000037B6106
S1131D3000F0DCFA7B681A683B681344FB607B683C
S1131D401A6840F2F803C1F200031B689A4210D9E2
S1131D507B681A68FB689A421CD940F2F803C1F206
S1131D6000031B68FA689A4216D94FF001037B619D
S1131D7013E07B681A68FB689A4207D840F2F803BC
S1131D80C1F200031B68FA689A4206D94FF00103B6
S1131D907B6102E000BF00E000BF7B68FA681A6064
S1131DA07B69002B39D040F23403C1F200031B6875
S1131DB003F104031846FFF7C5FA40F23403C1F2F5
S1131DC000031B68FA685A6040F2F803C1F200038A
S1131DD01B68FA689A4210D240F2C803C1F20003A9
S1131DE01A6840F23403C1F200031B6803F10403D0
S1131DF010461946FFF76CFA0FE040F2C403C1F233
S1131E0000031A6840F23403C1F200031B6803F1B3
S1131E10040310461946FFF75BFA00F079FA03460B
S1131E203B613B69002B01D101F018F807F1180759
S1131E30BD4680BD80B584B000AF78604FF000032C
S1131E40FB607B68002B47D000F050FA40F2F803A7
S1131E50C1F200031A687B681344BB6040F2340388
S1131E60C1F200031B6803F104031846FFF76AFA82
S1131E7040F23403C1F200031B68BA685A6040F2AE
S1131E80F803C1F200031B68BA689A4210D240F208
S1131E90C803C1F200031A6840F23403C1F200031C
S1131EA01B6803F1040310461946FFF711FA0FE00B
S1131EB040F2C403C1F200031A6840F23403C1F2D1
S1131EC000031B6803F1040310461946FFF700FAE8
S1131ED000F01EFA0346FB60FB68002B01D100F002
S1131EE0BDFF07F11007BD4680BD00BF80B586B0B9
S1131EF000AF786039604FF000037B613B68042BCE
S1131F0002D94FF004033B6000F0B4FF40F2340305
S1131F10C1F200031B687A689A4202D14FF00003B1
S1131F207B607B68002B05D140F23403C1F20003CF
S1131F301B6800E07B68FB60FB68DB6A3B613A6915
S1131F403B689A425BD03A683B699A4206D97B68FF
S1131F50002B0AD04FF001037B6107E07B68002B64
S1131F6004D14FF001037B6100E000BFFB683A68D5
S1131F70DA623B68C3F10502FB689A61FB68596940
S1131F803A6913464FEA830313444FEA83031A461C
S1131F9040F23803C1F20003134499422AD1FB688A
S1131FA003F104031846FFF7CDF9FB68DA6A40F23F
S1131FB00013C1F200031B689A4206D9FB68DA6A6F
S1131FC040F20013C1F200031A60FB68DA6A134698
S1131FD04FEA830313444FEA83031A4640F238035B
S1131FE0C1F200031A44FB6803F1040310461946C6
S1131FF0FFF746F97B69012B01D100F02FFF00F0B8
S11320004FFF07F11807BD4680BD00BF80B584B0FF
S113201000AF786000F02EFF40F23403C1F20003F9
S11320201B687A689A4202D14FF000037B607B6898
S1132030002B05D140F23403C1F200031B6800E019
S11320407B68FB60FB6803F104031846FFF77AF929
S1132050FB689B6A002B05D0FB6803F11803184644
S1132060FFF770F9FB6803F1040340F2E000C1F2EA
S113207000001946FFF704F900F012FF7B68002BFB
S113208001D100F0EBFE07F11007BD4680BD00BF93
S113209080B485B000AF78604FF00003BB607B680C
S11320A0FB60FB685A6940F2E003C1F200039A4204
S11320B00ED1FB689A6A40F2CC03C1F200039A4243
S11320C006D0FB689B6A002B02D14FF00103BB6072
S11320D0BB68184607F11407BD4680BC704700BFB3
S11320E080B584B000AF78607B68FB60FB68002B30
S11320F048D040F23403C1F200031B68FA689A42E4
S113210040D000F0B7FEF868FFF7C2FF0346012B8A
S113211036D1FB6803F104031846FFF713F9FB6893
S1132120DA6A40F20013C1F200031B689A4206D92E
S1132130FB68DA6A40F20013C1F200031A60FB681C
S1132140DA6A13464FEA830313444FEA83031A46B9
S113215040F23803C1F200031A44FB6803F104039C
S113216010461946FFF78CF8FB68DA6A40F234032C
S1132170C1F200031B68DB6A9A4201D300F06EFED1
S113218000F08EFE07F11007BD4680BD80B584B017
S113219000AF78604FF00003BB607B68FB60F868B9
S11321A0FFF776FF0346012B49D140F20813C1F231
S11321B000031B68002B38D1FB68DA6A40F2340351
S11321C0C1F200031B68DB6A9A4234BF0023012377
S11321D0BB60FB6803F104031846FFF7B3F8FB6820
S11321E0DA6A40F20013C1F200031B689A4206D96E
S11321F0FB68DA6A40F20013C1F200031A60FB685C
S1132200DA6A13464FEA830313444FEA83031A46F8
S113221040F23803C1F200031A44FB6803F10403DB
S113222010461946FFF72CF809E0FB6803F1180380
S113223040F2CC00C1F200001946FFF721F8BB6858
S1132240184607F11007BD4680BD00BF80B586B0B3
S113225004AF43F26023C0F200034FF00002009287
S11322604FF0000201924FF0000202924FF0000280
S1132270039242F66510C0F2000019464FF0500276
S11322804FF00003FFF77CFC03467B607B68012B67
S113229015D14FF0280080F3118840F20413C1F2E5
S11322A000034FF001021A6040F2F803C1F2000388
S11322B04FF000021A60FEF73BF900F09FFD07F1B2
S11322C00807BD4680BD00BF80B500AF4FF02800B1
S11322D080F3118840F20413C1F200034FF00002AE
S11322E01A6000F0B5FDBD4680BD00BF80B400AFEC
S11322F040F20813C1F200031B6803F1010240F22B
S11323000813C1F200031A60BD4680BC704700BFC9
S113231090B583B000AF4FF000033B6000F0AAFD1E
S113232040F20813C1F200031B6803F1FF3240F2CC
S11323300813C1F200031A6040F20813C1F200034B
S11323401B68002B40F08C8040F2F403C1F20003C0
S11323501B68002B00F084804FF000037B6036E0A4
S113236004F118031846FEF7EDFF04F104031846C0
S1132370FEF7E8FFE26A40F20013C1F200031B68B3
S11323809A4205D9E26A40F20013C1F200031A60CE
S1132390E26A13464FEA830313444FEA83031A465F
S11323A040F23803C1F200031A4404F10403104656
S11323B01946FEF765FFE26A40F23403C1F20003F6
S11323C01B68DB6A9A4202D34FF001037B6040F240
S11323D0CC03C1F200031B68002B06D040F2CC03EF
S11323E0C1F20003DB68DB6801E04FF000031C4628
S11323F0002CB5D140F20C13C1F200031B68002B72
S113240018D00DE000F054F840F20C13C1F20003B0
S11324101B6803F1FF3240F20C13C1F200031A608F
S113242040F20C13C1F200031B68002BEAD14FF0F9
S113243001037B607B68012B06D040F21013C1F2CC
S113244000031B68012B0BD14FF001033B6040F2EA
S11324501013C1F200034FF000021A6000F0FEFCFA
S113246000F01EFD3B68184607F10C07BD4690BD01
S113247080B582B000AF00F0FDFC40F2F803C1F279
S113248000031B687B6000F00BFD7B68184607F1B6
S11324900807BD4680BD00BF80B400AF40F2F4031E
S11324A0C1F200031B681846BD4680BC704700BFDC
S11324B090B583B000AF40F20813C1F200031B686B
S11324C0002B40F0828040F2F803C1F200031B6845
S11324D003F1010240F2F803C1F200031A6040F272
S11324E0F803C1F200031B68002B58D140F2C40367
S11324F0C1F200031B687B6040F2C803C1F2000311
S11325001A6840F2C403C1F200031A6040F2C8031F
S1132510C1F200037A681A6040F21413C1F2000396
S11325201B6803F1010240F21413C1F200031A60A4
S113253035E0626840F2F803C1F200031B689A4276
S113254051D804F104031846FEF7FCFEA36A002BDD
S113255004D004F118031846FEF7F4FEE26A40F2D0
S11325600013C1F200031B689A4205D9E26A40F2E3
S11325700013C1F200031A60E26A13464FEA8303B0
S113258013444FEA83031A4640F23803C1F20003AE
S11325901A4404F1040310461946FEF771FE40F292
S11325A0C403C1F200031B681B68002B07D040F270
S11325B0C403C1F200031B68DB68DB6801E04FF071
S11325C000031C46002CB4D10DE040F20C13C1F200
S11325D000031B6803F1010240F20C13C1F2000373
S11325E01A60FDF7ABFF40F20C13C1F200031B6845
S11325F0002B01D1FDF7A2FF07F10C07BD4690BDEA
S113260080B483B000AF40F20813C1F200031B682A
S1132610002B14D040F21013C1F200034FF001025A
S11326201A604DE040F20013C1F200031B6803F18D
S1132630FF3240F20013C1F200031A6000E000BF51
S113264040F20013C1F200031A6813464FEA8303F1
S113265013444FEA83031A4640F23803C1F20003DD
S113266013441B68002BDDD040F20013C1F20003B9
S11326701A6813464FEA830313444FEA83031A4646
S113268040F23803C1F2000313447B607B685B684B
S11326905A687B685A607B685A687B6803F1080350
S11326A09A4204D17B685B685A687B685A607B688D
S11326B05B68DB681A4640F23403C1F200031A6017
S11326C007F10C07BD4680BC704700BF80B584B0DD
S11326D000AF7860396040F23403C1F200031B6834
S11326E003F1180378681946FEF7F2FD40F234034B
S11326F0C1F200031B6803F104031846FEF722FE2F
S11327003B68B3F1FF3F0ED140F23403C1F2000342
S11327101B6803F1040340F2E000C1F20000194613
S1132720FEF7AEFD37E040F2F803C1F200031A6889
S11327303B681344FB6040F23403C1F200031B689E
S1132740FA685A6040F2F803C1F200031B68FA68A1
S11327509A4210D240F2C803C1F200031A6840F250
S11327603403C1F200031B6803F104031046194645
S1132770FEF7AEFD0FE040F2C403C1F200031A6895
S113278040F23403C1F200031B6803F10403104652
S11327901946FEF79DFD07F11007BD4680BD00BF39
S11327A080B584B000AF78607B681B68002B03D0D1
S11327B07B68DB68DB6801E04FF00003BB60BB684B
S11327C003F118031846FEF7BDFD40F20813C1F2E9
S11327D000031B68002B2BD1BB6803F104031846CC
S11327E0FEF7B0FDBB68DA6A40F20013C1F20003E1
S11327F01B689A4206D9BB68DA6A40F20013C1F238
S113280000031A60BB68DA6A13464FEA8303134471
S11328104FEA83031A4640F23803C1F200031A4414
S1132820BB6803F1040310461946FEF729FD09E0CD
S1132830BB6803F1180340F2CC00C1F20000194652
S1132840FEF71EFDBB68DA6A40F23403C1F20003EE
S11328501B68DB6A9A4203D34FF00103FB6002E07A
S11328604FF00003FB60FB68184607F11007BD46F4
S113287080BD00BF80B483B000AF786040F2141311
S1132880C1F200031A687B681A6040F2F803C1F2CF
S113289000031A687B685A6007F10C07BD4680BCC8
S11328A0704700BF80B584B000AF7860396000F035
S11328B0E1FA3B681B68B3F1FF3F03D14FF000031B
S11328C0FB603AE07B681A6840F21413C1F200031B
S11328D01B689A420CD07B685A6840F2F803C1F234
S11328E000031B689A4203D84FF00103FB6024E005
S11328F040F2F803C1F200031A687B685B68C3EB1B
S113290002023B681B689A4214D23B681A687B68CF
S1132910596840F2F803C1F200031B68C3EB0103DA
S11329201A443B681A607868FFF7A4FF4FF000036D
S1132930FB6002E04FF00103FB6000F0B1FAFB68BA
S1132940184607F11007BD4680BD00BF80B400AF34
S113295040F21013C1F200034FF001021A60BD46A9
S113296080BC704780B582B000AF786000F08AF810
S1132970FCE700BF80B584B000AFF860B9607A604E
S11329803B60FB6803F134031A46BB6810461946E2
S11329904FF00C0200F022FCFB684FF0000283F8B9
S11329A03F207B68042B02D94FF004037B60FB6853
S11329B07A68DA62FB6803F104031846FEF752FCF6
S11329C0FB6803F118031846FEF74CFCFB68FA6831
S11329D01A617B68C3F10502FB689A61FB68FA68B7
S11329E05A6207F11007BD4680BD00BF80B582B0B2
S11329F000AF4FF000037B6013E07A6813464FEAA0
S1132A00830313444FEA83031A4640F23803C1F2A6
S1132A10000313441846FEF701FC7B6803F101032D
S1132A207B607B68042BE8D940F29C00C1F2000073
S1132A30FEF7F4FB40F2B000C1F20000FEF7EEFB3B
S1132A4040F2CC00C1F20000FEF7E8FB40F2E000E7
S1132A50C1F20000FEF7E2FB40F2C403C1F200033E
S1132A6040F29C02C1F200021A6040F2C803C1F2B3
S1132A70000340F2B002C1F200021A6007F1080735
S1132A80BD4680BD80B400AFBD4680BC704700BF6A
S1132A9080B584B000AF03463960FB804FF040003E
S1132AA000F02CF80346FB60FB68002B1FD0FB886A
S1132AB04FEA8303184600F021F803461A46FB68E0
S1132AC01A63FB681B6B002B06D1F86800F0F8F85A
S1132AD04FF00003FB600AE0FB681A6BFB884FEAC7
S1132AE0830310464FF0A5011A4600F00DFBFB6866
S1132AF0184607F11007BD4680BD00BF80B58AB0F7
S1132B0000AF78604FF00003BB61FFF7EFFB44F6C2
S1132B103453C1F200031B68002B3AD140F2201257
S1132B20C1F2000244F62053C1F200031A6044F6D5
S1132B302053C1F200034FF000025A6044F62853B8
S1132B40C1F200034FF498425A6044F62853C1F28C
S1132B5000034FF000021A6040F22013C1F2000398
S1132B60FB61FB694FF498425A60FA6944F62853B2
S1132B70C1F20003136044F63053C1F200034FF472
S1132B8098421A6044F63453C1F200034FF0010234
S1132B901A607B68002B12D043F26823C0F2000352
S1132BA01B887A6813447B607B6803F00703002B5F
S1132BB005D07B6823F0070303F108037B607B687F
S1132BC0002B74D07A6844F6FF339A426FD844F6E7
S1132BD02053C1F200033B6144F62053C1F20003C9
S1132BE01B68FB6004E0FB683B61FB681B68FB60DF
S1132BF0FB685A687B689A4203D2FB681B68002B07
S1132C00F1D1FA6844F62853C1F200039A424ED037
S1132C103B691A6843F26823C0F200031B8813441B
S1132C20BB61FB681A683B691A60FB685A687B6879
S1132C30C3EB020243F26823C0F200031B884FEA8D
S1132C4043039A4226D9FA687B6813447B61FB6884
S1132C505A687B68C3EB02027B695A60FB687A6836
S1132C605A607B695B687B6244F62053C1F20003BF
S1132C703B6202E03B6A1B683B623B6A1B685A6822
S1132C807B6A9A42F6D33B6A1A687B691A603B6A8C
S1132C907A691A6044F63053C1F200031A687B68FB
S1132CA0C3EB020244F63053C1F200031A60FFF78B
S1132CB02FFBBB69184607F12807BD4680BD00BF3E
S1132CC080B586B000AF78607B68BB607B68002B02
S1132CD035D043F26823C0F200031B88C3F100031C
S1132CE0BA681344BB60BB68FB60FFF7FFFAFB687C
S1132CF05B687B6144F62053C1F200033B6102E050
S1132D003B691B683B613B691B685A687B699A4253
S1132D10F6D33B691A68FB681A603B69FA681A6063
S1132D20FB685A6844F63053C1F200031B681A4426
S1132D3044F63053C1F200031A60FFF7E9FA07F1D1
S1132D401807BD4680BD00BF80B400AF44F63053C1
S1132D50C1F200031B681846BD4680BC704700BF23
S1132D6080B400AFBD4680BC704700BF80B485B05E
S1132D7000AFF860B9607A60FB68A3F10403FB60FC
S1132D80FB684FF080721A60FB68A3F10403FB60D8
S1132D90BA68FB681A60FB68A3F10403FB60FB6874
S1132DA04FF000021A60FB68A3F11403FB607A6819
S1132DB0FB681A60FB68A3F12003FB60FB681846FC
S1132DC007F11407BD4680BC704700BF064B196865
S1132DD00868B0E8F00F80F309884FF0000080F332
S1132DE011884EF00D0E7047340000100248006840
S1132DF0006880F3088800DF08ED00E080B500AFCC
S1132E004EF62053CEF200034EF62052CEF20002CC
S1132E10126842F478021A604EF62053CEF2000390
S1132E204EF62052CEF20002126842F078421A6046
S1132E3000F08CF840F20803C1F200034FF00002E6
S1132E401A60FFF7D3FF4FF000031846BD4680BD5C
S1132E5080B400AFBD4680BC704700BF80B400AFF3
S1132E604EF60453CEF200034FF080521A60BD4672
S1132E7080BC704780B400AF4FF0280080F3118805
S1132E8040F20803C1F200031B6803F1010240F29F
S1132E900803C1F200031A60BD4680BC704700BF3E
S1132EA080B400AF40F20803C1F200031B6803F1D1
S1132EB0FF3240F20803C1F200031A6040F2080333
S1132EC0C1F200031B68002B03D14FF0000080F314
S1132ED01188BD4680BC7047EFF309800C4B1A681B
S1132EE020E9F00F10602DE908404FF0280080F32E
S1132EF01188FFF785FB4FF0000080F31188BDE8CF
S1132F00084019680868B0E8F00F80F30988704732
S1132F103400001080B582B000AF4EF60453CEF2F8
S1132F2000034FF080521A604FF000037B604FF0B3
S1132F30280080F31188FFF7BBFA4FF0000080F3FC
S1132F40118807F10807BD4680BD00BF80B400AFFB
S1132F504EF21403CEF2000348F2B722C0F201028B
S1132F601A604EF21003CEF200034FF007021A600B
S1132F70BD4680BC704700BF032A2DE9F0070BD87B
S1132F803AB1002311F803C000F803C0013393429F
S1132F90F8D1BDE8F007704782180C46034603E0F9
S1132FA014F8011C03F8011C03F003061946A44697
S1132FB001330134002EF3D11CF00304634608BF2F
S1132FC0C1EB020C68D06542C4F1040A0CEB05079E
S1132FD033464FEACA0A5CF805604FEAC408551A3A
S1132FE008E057F8044F264604FA0AF449EA0404B0
S1132FF0CC5004335C18032D26FA08F9A5F1040516
S11330000CEB0306EDDC002302E0F15CE154013338
S113301019199142F9D3BCE753F8404C41F8404C9C
S113302053F83C4C41F83C4C53F8384C41F8384C7C
S113303053F8344C41F8344C53F8304C41F8304C8C
S113304053F82C4C41F82C4C53F8284C41F8284C9C
S113305053F8244C41F8244C53F8204C41F8204CAC
S113306053F81C4C41F81C4C53F8184C41F8184CBC
S113307053F8144C41F8144C53F8104C41F8104CCC
S113308053F80C4C41F80C4C53F8084C41F8084CDC
S113309053F8044C41F8044C1C460D46403340316F
S11330A0BCF13F0FACF1400CB6DC21462B46541B5F
S11330B00FE051F8105C43F8105C51F80C5C43F8D5
S11330C00C5C51F8085C43F8085C51F8045C43F864
S11330D0045C0F2C0D469C4601F1100103F1100312
S11330E0A4F11004E5DCCCEB0201002303E0EC586E
S11330F04CF8034004335E19032903EB0C04A1F1DB
S11331000401F4DC7FE700BF032AC9B230B407D856
S113311022B10023C15401339342FBD130BC704728
S113312000EB020C034601E003F8011C03F0030466
S11331301A460133002CF7D14FF00133C2EB0C04D3
S113314003FB01F31FE042F8403C42F83C3C42F8E8
S1133150383C42F8343C42F8303C42F82C3C42F8CB
S1133160283C42F8243C42F8203C42F81C3C42F8FB
S1133170183C42F8143C42F8103C42F80C3C42F82B
S1133180083C42F8043C154640323F2CA4F140046C
S1133190D9DC2A46C5EB0C0407E042F8103C42F89F
S11331A00C3C42F8083C42F8043C154610320F2C03
S11331B0A4F11004F1DC2A46C5EB0C0501E042F849
S11331C0043C14460432032DA5F10405F7DC01E0A8
S11331D004F8011B6445FBD3A0E700BF41EA0003E8
S11331E013F0030F14BF00230123032A94BF002309
S11331F003F0010330B4002B2AD004460B68A3F17A
S1133200013C2CEA030C1CF0803F05D1043A043144
S1133210032A44F8043BF1D82346BAB10D781C467E
S1133220013A04F8015B55B102337AB111F8015F38
S11332301C46013A03F8015C0133002DF5D12AB193
S113324000231946E15401339342FBD130BC70474B
S11332500346E2E74C454400286E756C6C29000077
S113326049444C450000000010000000F800000034
S10F3270F8B500BFF8BC08BC9E467047CF
S10F327CF8B500BFF8BC08BC9E467047C3
S1073288000000003E
S10F328C0000000000E1F505AAAAAAAAAF
S1073298F900000035
S107329CCD0000005D
S10732A00000000026
S9030AD919
